:1000000000800010914D0000C14D0000C34D000064
:10001000C54D0000C74D0000C94D000000000000A4
:10002000000000000000000000000000CB4D0000B8
:10003000CD4D000000000000CF4D0000D14D00006C
:10004000D34D0000D34D0000D34D0000D34D000030
:10005000D34D0000D34D0000D34D0000D34D000020
:10006000D34D0000D34D0000D34D0000D34D000010
:10007000D34D0000D34D0000D34D0000D34D000000
:10008000D34D0000D34D0000D34D0000D34D0000F0
:10009000D34D0000D34D0000D34D0000D34D0000E0
:1000A000D34D0000D34D0000D34D0000D34D0000D0
:1000B000D34D0000D34D0000D34D0000D34D0000C0
:1000C000D34D0000D34D0000D34D000010B5054CBA
:1000D000237833B9044B13B10448AFF300800123F4
:1000E000237010BDEC0A001000000000540F010046
:1000F0000C4B43B10C4810B50C49AFF300800C48D1
:10010000036823B910BD0A48036833B97047094B27
:10011000002BF7D0BDE810401847064B002BF5D058
:10012000184700BF00000000540F0100F00A001043
:10013000EC0A001000000000154B002B08BF134B09
:100140009D46A3F5803A00218B460F461348144A7A
:10015000121A06F005FB0F4B002B00D098470E4BF0
:10016000002B00D098470020002104000D000D480E
:10017000002802D00C480AF08BF905F02BFE200075
:10018000290004F004F805F075FB00BF000008002A
:10019000008000100000000081410000EC0A001007
:1001A0009823001091A4000029B500007F2810B505
:1001B00019DD31B1FF2815DC0B4B803833F8100006
:1001C00010BD094C80298BB20AD0013104EB4102E9
:1001D00032F8022C8242F5D103F18000C0B210BD8A
:1001E0000B46F9E7002010BDD4F000007F2870B561
:1001F00006DCA0F16103192B17D8203880B270BD3E
:100200000C2100224FF4F774084DA31A02EB53039C
:1002100035F81360B04205D0D4BF1C461A460139E8
:10022000F3D170BD024A32F8130070BDD4F1000062
:10023000B0F5000008B5044B53F8200003681B6BB1
:100240009847C0B208BD00BF140D001008B5044B9C
:1002500053F820000368DB6A9847C0B208BD00BFAE
:10026000140D001010B5054C54F820000468646BA0
:10027000A047002814BF0420002010BD140D00105A
:1002800010B5054C54F820000468A46BA047002862
:1002900014BF0420002010BD140D0010012938B532
:1002A0000C4615460FD003D3032917D0042038BDC0
:1002B0000E4B53F82000A0B10368DB6B9847003069
:1002C00018BF012038BD094B53F8200048B103681E
:1002D0001B6C984738B12860002038BD012313609B
:1002E000FAE7032038BD204638BD00BF140D0010CA
:1002F00001380A44914204D011F8013B00F8013F53
:10030000F8E770470244904202D000F8011BFAE778
:100310007047002300F10B0110F8012B02EBC31210
:1003200002EB5303884203F0FF03F5D118467047F0
:10033000026810B552B111460B4611F8014B1F2C43
:100340000CD93A2CF8D1511C8B4202D04FF0FF301F
:1003500010BD1278302AF9D101330360002010BD9E
:1003600008B568B103685BB11A784AB1D988828848
:10037000914205D15878FFF75DFF10F0010000D0E1
:10038000092008BD03692DE9F0410D46093193B3F9
:1003900000242E274269561E16F8013F0134202BF7
:1003A00019D0052B4BD0092C01D10F700131A3F1CD
:1003B000410EBEF1190F0CD8082C8CBF4FF0100C59
:1003C0004FF0080C92F80CE01CEA0E0F1CBF203313
:1003D000DBB20B7001310B2CDED1D37A2B72D369D7
:1003E0002B60547E137E43EA0423AB80D47D937D3F
:1003F00043EA0423EB8000240C70AE6926B3036942
:10040000C3B1EB69B3B14FF6FF73028C9A4211D0BE
:10041000D0F81C80771E38F8140060B10021FFF777
:10042000C5FE38B1EB69013B9C4203D2013407F8A9
:10043000010FF0E7002400233355BDE8F081092CBB
:100440004FF0E503C5D1B0E7BDE8F081CA7E8B7EF1
:10045000032843EA022301BF487D0A7D42EA0022C5
:1004600043EA024318467047F8B5C56A00F1300701
:10047000044601232A4639464078FFF701FFA0B918
:10048000236AA269EB1A9342207101D30020F8BDC0
:10049000E678012EFAD9A36939461D442A4601237C
:1004A0006078FFF7EDFE013EF3E70120F8BD037928
:1004B0000BB1FFF7D9BF1846704770B50446FFF778
:1004C000F6FF054600284FD12378032B44D16379EA
:1004D000012B41D104F1300601464FF40072304641
:1004E000FFF710FF552284F82E22AA2284F82F222B
:1004F000522284F8302084F8312061224121722078
:1005000084F8322084F81722226984F8331084F8A2
:100510001612111284F8182284F81912110C120EF6
:1005200084F81B22E26884F81A12111284F81C2243
:1005300084F81D12110C120E84F81F22E26984F84F
:100540001402013284F8150284F81E12E262314668
:100550006078FFF795FE6571002260781146FFF71D
:100560009DFE003018BF012070BDC36A70B58B427C
:1005700006460D4612D0FFF79AFF044660B92A4698
:10058000012306F130017078FFF76CFE00281CBFD4
:100590004FF0FF350124F562204670BD0024FBE7D3
:1005A000002310B503714FF0FF33C3620446FFF719
:1005B000DCFFC0B994F82F2294F82E3243EA0223CC
:1005C0004AF65522934210D1D4F86630084A23F0F7
:1005D0007F4393420AD0D4F8820020F07F40801AF3
:1005E00018BF012010BD032010BD022010BD00BFA8
:1005F000464154000023F0B5036085B00746084625
:100600001546FFF795FE061EC0F2E080824B53F8B8
:100610002640002C00F0DC803C6023786BB16078D1
:10062000FFF708FEC70708D4002D00F0BB8010F0CC
:10063000040000D00A2005B0F0BD0023F0B2237002
:100640006070FFF703FEC10700F1C4800DB14207DF
:10065000F0D400212046FFF7A3FF01281FD100227C
:1006600004F5FB7111F8043C03B10B684DF822301E
:100670000132042A01F11001F4D100265DF8265060
:100680005DB129462046FFF78BFF70B10136042E7D
:10069000F4D1032806D10120CDE70220F6E7032894
:1006A000F9D008B10D20C6E7054694F83C2094F82F
:1006B0003B3043EA0223B3F5007FF3D194F847308F
:1006C00094F8461094F8400051EA032108BF616D88
:1006D000431E012BA161E070E4D894F83D60A67040
:1006E000002EDFD0731E3342DCD194F8423094F8F0
:1006F000417047EA03273B072781D3D194F8442070
:1007000094F8433094F83FE053EA022394F83E20F3
:1007100008BF236D52EA0E22C4D001FB00FE02EB9B
:10072000171070448342BDD31B1AB3FBF6F3002BA2
:10073000B8D040F6F576B34236D94FF6F576B342E7
:1007400094BF0226032602332A442844032E636101
:10075000E5612262A06229D1002FA3D1E26D9B0046
:10076000626203F2FF13B1EB532F9BD34FF0FF33C1
:100770002361E3608023032E63710CD194F8612020
:1007800094F8603043EA0223012B04D1691C20460F
:10079000FFF7EBFE00B3214A2670138801339BB2AA
:1007A0001380E380002046E70126CCE7002F3FF4CA
:1007B00079AF7244022E62624FEA43021BBFD21825
:1007C00003F00103134603EB5203CAE70B2032E7A1
:1007D0000C2030E703202EE794F82F2294F82E32D5
:1007E000607143EA02234AF655229342D3D1226B29
:1007F0000B4B9A42CFD103F1FF53D4F8142203F5E7
:10080000005320339A4201BFD4F818322361D4F840
:100810001C32E360BFE700BF0C0B0010080B001098
:100820005252614143690239023B99423DBF83788C
:10083000806A01FB0300002070470129F8B50646D5
:100840000D465DD9436999425AD20378022B29D0CB
:10085000032B39D0012B53D101EB5104016A01EB79
:100860005421FFF782FE10B14FF0FF30F8BD316A1E
:10087000671CC4F30804344401EB5721304694F854
:100880003040FFF772FE0028EED1C7F308073E4460
:1008900096F83000EB0744EA00204CBF0009C0F393
:1008A0000B00F8BD016A01EB1521FFF75EFE002881
:1008B000DAD16D0005F4FF75354495F8313095F8BF
:1008C000300040EA0320F8BD016A01EBD511FFF7C3
:1008D0004CFE0028C8D1AD0005F4FE7505F13003CB
:1008E00033449878DA783544000440EA026095F899
:1008F00030205B78104340EA032020F07040F8BDC0
:100900000120F8BD70B5044682680D46012AE180D9
:1009100001D1022070BD036859698A42F9D2BAB97F
:100920001978032901D1596A99B919898D42F0D2F0
:10093000586AE2600028ECD0236800EB15103033D1
:1009400005F00F0503EB451520616561002070BDC2
:1009500011460A469E783601B542114620680CD3EE
:10096000FFF76BFF431C02460AD00128D1D9236848
:100970005B699842CDD2AD1BEEE7FFF753FFD8E796
:10098000012070BD01292DE9F04105460C461646AF
:1009900070D9436999426DD20378022B3ED0032B64
:1009A0004CD0012B66D101EB5107016A01EB5721B5
:1009B000FFF7DBFD00285ED107F10108C7F3080748
:1009C00014F001042F4417BF97F83030F3B203F04E
:1009D0000F0233011CBF03F0F003134387F83030DC
:1009E0000123296A2B7101EB58212846FFF7BDFD31
:1009F000002840D1C8F308032B443CB1C6F30712CA
:100A000083F8302001232B71BDE8F08193F830206A
:100A1000C6F3032622F00F023243F1E7016A01EB2D
:100A20001421FFF7A2FD30BB640004F4FF742C44D2
:100A3000321284F8306084F83120E3E7016A01EB78
:100A4000D411FFF792FDB0B9A40004F4FE7404F1D0
:100A500030012944CB782C441B0603F0704343EA51
:100A60000602131284F830204B70130C120E8B7098
:100A7000CA70C7E70220BDE8F081F8B505460F4609
:100A800071B9C668E6B143699E4228BF0126344663
:100A90006B6901349C4216D3012E13D8002408E060
:100AA000FFF7CBFE0128044635D9013003D14FF0C2
:100AB000FF342046F8BD6B699C42FAD33E46E6E718
:100AC0000126E4E7022421462846FFF7B6FE30B1AE
:100AD000411CECD001281ED0B442D9D1DEE76FF022
:100AE000704221462846FFF74DFF90B957B92B6950
:100AF000EC605A1CDDD0013B2B616B7943F00103A4
:100B00006B71D6E7224639462846FFF73BFF00289F
:100B1000EDD00128CBD00124CBE72DE9F843C688DE
:100B200004460136B3B2894613B90420BDE8F88300
:100B30000369002BF9D016F00F0807D1C168013303
:100B40000361006859B903899E42EED22368E680AA
:100B5000303303EB481363610020BDE8F8838778E6
:100B6000013F17EA1617F1D1FFF767FE0128054686
:100B700002D80220BDE8F883421C02D10120BDE862
:100B8000F883206843699D4233D3B9F1000FCCD07C
:100B9000E168FFF772FF0546002831D00128E8D050
:100BA000431CEBD02068FFF782FC01460028E5D10A
:100BB00020684FF400723030FFF7A4FB226829460A
:100BC0001046FFF72FFE4FF00109D06220688378AE
:100BD0009F420BD280F80490FFF746FC0028CDD14D
:100BE00022680137D36A0133D362EFE7C36ADF1BA0
:100BF000C762E56029462068FFF714FE2061A5E77B
:100C00000720BDE8F88300002DE9F74F4FF0FF09FA
:100C10004FF6FF7806464C46A0F8208031693068D0
:100C2000FFF7A3FC074600286DD175692B78002BD0
:100C30006DD0E52B06D0E97A01F03F02090704D513
:100C40000F2A04D0A6F8208052E00F2A55D1D6F8FA
:100C50001CB0BBF1000F41D05F0647D503F0BF04C5
:100C6000F38895F80D9033846B7B4B4540D1EB7E38
:100C7000AF7E47EA03273FB2002F39D10D22012171
:100C80002B7803F03F03013B02FB03FA284BF85C8F
:100C90002A1892F801E02A5C42EA0E2251B3BAF116
:100CA000FE0F25D810460192FFF7A0FA00903BF8FE
:100CB0001A00FFF79BFA0099019A814218D1114658
:100CC0000AF1010A01370D2FE0D12A78500603D529
:100CD00011B13BF81A305BB9013CE4B20021304657
:100CE000FFF71BFF0746002898D00CE0A342BBD0BB
:100CF000FF24F3E74245E5D0FAE754B92846FFF769
:100D000008FB484505D1384603B0BDE8F08F0427FD
:100D1000F9E7B369DA7AD20794D403F10B0293426C
:100D2000F1D015F8010B13F8011B8842F7D089E7C1
:100D30001CFA00002DE9F74F0B7807462F2B884649
:100D400001D05C2B01D108F101080024BC6098F8A7
:100D500000301F2B00F2818021463846FFF7D2FD7C
:100D60007C6103B0BDE8F08F202AA044B4BF042406
:100D700000240BEB4602002E00F09C8032F8021D8E
:100D8000202902D02E2940F09D80013EF3E709B1D1
:100D900044F003044A4632F8020D2E2801D0013EE9
:100DA000F9D14FF000094FF0080A4D463BF8110009
:100DB0004A1C002800F0A580202804D02E2806D147
:100DC000B24200F0938044F003041146EEE7D145AF
:100DD00080F08F80B24211D1BAF10B0F06D18CE0B6
:100DE000B24203D044F0030400F28B80AD00EDB2B8
:100DF00032464FF00B0A4FF00809E6E77F280DDD79
:100E000000210192FFF7D2F9019A18B1604B184402
:100E100010F8800C80B244F0020438B15D4B13F836
:100E2000011F002900F0A5808142F8D144F003049D
:100E30005F2001E045F00205B96901F8090009F1F8
:100E40000109C2E75A078CD47969CB7ADB0633D51E
:100E50003B681878FFF7FAFAB86098F80030444613
:100E60002F2B08F10108F8D05C2BF6D00026D7F81C
:100E70001CB004F1FF39ABF1020519F8012F06F19E
:100E800001081F2A90B27FF76FAF2F283FF46CAF95
:100E90005C283FF469AFB8F5807F0BD00121FFF7E4
:100EA00085F938B17F2809DC3B4911F8012F2AB1B7
:100EB0009042FAD1062054E7052052E725F8020FA8
:100EC0004646DAE7002520212BF816500B22B86998
:100ED000FFF718FA29460BEB46093BF81120202AA8
:100EE00002D02E2A7FF453AF0131F6E7D145FFF44B
:100EF00073AFBAF10B0F7FF473AF4FF00B0A44F0EE
:100F00000304BB691A78E52A04BF05221A70BAF1F6
:100F1000080F04BFAD00EDB205F00C030C2B03D09D
:100F200005F00302032A01D144F00204A10709D409
:100F300005F00305012D08BF44F01004042B08BF81
:100F400044F00804BB690021DC723846FFF7DAFC84
:100F500010B93846FFF758FEBB69DB7A00283FF42A
:100F600071AF04287FF4FDAE13F0040F08BF052015
:100F7000F7E6A0F1410119297FF65CAFA0F161010C
:100F800019299EBF203845F0010580B254E700BF03
:100F90009CF9000094F900008BF900000C222DE967
:100FA000F047866986B0C769044631460DEB0200FA
:100FB000FFF79EF99DF81730DB0740F1B080002362
:100FC0004FF00109DFF80C82F372E3610B2203A9F1
:100FD0003046FFF78DF9B9F1050F12D94B46B81E0F
:100FE00030F8022F72B1102102F0010505EB430326
:100FF000DD0348BF83EA080301394FEA5202F3D107
:10100000EEE74B46072203F00F0000F130013929CB
:1010100088BF00F13701013A01A810441B09417053
:10102000F1D17E2006A9114401F8140C9A4225D072
:10103000F15C202924D13344072A8FBF202106A93F
:10104000891811F8141C98BF013203F8011B991B71
:101050000729F1D900212046FFF754FC0546002856
:1010600057D12046FFF7D0FD0546002851D109F1A0
:101070000109B9F1640FA9D1072538E01346DAE771
:101080000133D3E70D231936B6FBF3F600212046D2
:10109000FFF738FC0546002837D10746216920684C
:1010A000FFF763FA054680BB63691B78E52B00D028
:1010B0001BBB0137BE4221D1013E3BD121692068D3
:1010C000FFF753FA054690B9202229466069FFF7D9
:1010D00019F90B22A1696069FFF70AF9A36962692E
:1010E000DB7A03F018031373012223681A71284670
:1010F00006B0BDE8F0870126C8E707460121204673
:10110000FFF70BFD05460028C8D0042D08BF0725B2
:10111000EDE7042DEBD19DF81730F372E7619DF8F0
:1011200017309B07E7D5002637F81630002BA9D0DB
:101130000136F9E7E1882046891BFFF7E3FB054606
:101140000028D4D1A069FFF7E4F84FF6FF790746ED
:10115000DFF8848021692068FFF707FA0546002838
:10116000C5D10F220D256369F1B2D4F81CC0DA7223
:101170004A1E6A4305465F7318739876D8764845C9
:1011800018BF3CF8120015F808E005F1010503F856
:101190000E0018BF01324FEA202A9E44002808BFE3
:1011A00048460D2D8EF801A0E9D1484502D03CF803
:1011B00012200AB941F04001012219702368002170
:1011C0001A712046FFF7A9FC054600288FD1013E81
:1011D000C0D173E7211001001CFA00004FF6FF7325
:1011E00070B5018CC5880446994208BF2946FFF7AF
:1011F00089FB0346E8B9E52621692068FFF7B5F9C0
:10120000034698B9014620226069FFF77BF8012167
:101210006269167022681171E288954209D91946EF
:101220002046FFF77AFC03460028E5D0042B08BFD0
:101230000223184670BD00002DE9F047FF258046C7
:101240002C464FF004094FF6FF77414ED8F81010A6
:10125000002970D0D8F80000FFF787F981460028F0
:1012600058D1D8F814000378002B68D0E52B49D06A
:101270002E2B47D0C27A02F03F0222F0200108292B
:1012800040D00F2A4DD15A063AD503F0BF04B8F822
:101290000630457BA8F82030437BAB4232D1C27E7A
:1012A000837E43EA02231BB263BB0D214FF0010C86
:1012B0000278D8F81CE002F03F02013A4A4313F8E2
:1012C000069000EB090191F801A010F8091041EA1D
:1012D0000A21BCF1000F21D0FE2A13D88C462EF82B
:1012E0001210013201330D2BE9D103785B0604D5CE
:1012F000FE2A07D800232EF81230013CE4B202E0A7
:10130000A342C9D0FF2400214046FFF706FC8146D6
:1013100000289BD00023C8F8103009E0B942E1D082
:10132000F0E77CB9FEF7F5FFA8420BD14FF00009BA
:101330004846BDE8F087B9F1000FF7D0EAE74FF073
:101340000409E7E74FF6FF73A8F82030F0E700BF85
:101350001CFA0000012970B504460D4623D94369E3
:10136000994220D26369AB4201D8002070BD294662
:101370002046FFF762FA06460028F6D0012812D070
:10138000411C12D0002229462046FFF7FBFA68B91B
:1013900023695A1C05D001332361637943F00103AB
:1013A00063713546DEE7022070BD012070BD00008C
:1013B0001FB5019004A840F8041D00911446FEF7E3
:1013C000B7FF011E15DB0D4B53F8210008B10022B9
:1013D0000270019808B10022027043F8210030B178
:1013E000012C08D10022694601A8FFF703F904B0D7
:1013F00010BD0B20FBE70020F9E700BF0C0B00102D
:101400002DE9F0438FB0019114460646002800F004
:101410008F80002302F01E02036001A905A8FFF7D8
:10142000E9F8002852D102AB0B93444B019905A86F
:101430000C93FFF77FFC0A9D10B9002D08BF062012
:1014400014F01C0F04F01F074BD0002841D00428D3
:101450003CD105A8FFF7A2FDC0BB0A9D47F00807D5
:101460003C0747D501F00AFA0024C0F30743C1B294
:10147000C0F30722DDF81480000EA9732B74A97540
:101480002B76EC722C776C77AC77EC77EA73687418
:10149000EA75687698F800002946FEF7D7FF012321
:1014A000AC76EC762C756C7588F80430044608B37D
:1014B00001464046D8F82C90FFF74CFF30B905980C
:1014C000013CC4604946FFF750F898B10FB0BDE841
:1014D000F083EB7A13F0110F2ED16307C0D50820EB
:1014E000F4E70028F2D1EB7AD80623D4A10701D57E
:1014F000DA0721D40024DDF814803B07D8F82C301B
:1015000048BF47F02007F3613562B771F47198F86E
:1015100000002946FEF79AFF3061EB692046F36030
:10152000B8F80630B460B461C6F80080B380CDE787
:101530000920CBE70420C9E70720C7E7100B0010FC
:101540002DE9F74F99460023C9F800300546884633
:101550001646FEF705FF18BBE87908BBAB79D8073C
:1015600040F18E80E868AC6805F1240B041BB4429E
:1015700028BF3446002C00F08580AA68C2F3080317
:10158000002B6ED128688378013B03EA522313F0C5
:10159000FF0313D13AB9286901280AD80220E8715B
:1015A00003B0BDE8F08F69690193FFF746F9019B2D
:1015B000F2E7411C01D10120F1E76861D5F800A0F4
:1015C000696950460193FFF72DF90028E6D0019B89
:1015D000660A00EB030728D09AF802209919914275
:1015E00088BFD61A33463A4641469AF80100FEF7BC
:1015F00039FE0028DFD1AB795A060AD5A869C01B8D
:10160000864206D94FF40072594608EB4020FEF797
:101610006FFE7602AB68B0443344AB60D9F800305B
:10162000A41B3344C9F80030A4E7AA69974217D035
:10163000AB795B060BD5012359469AF80100FEF7FA
:101640001FFE0028B7D1AB7923F04003AB712868A7
:1016500001233A4659464078FEF704FE0028AAD1F5
:10166000AF61A9684046C1F30801C1F50076A64202
:1016700028BF2646243132462944FEF739FEC9E701
:1016800007208DE720468BE770B50446FEF768FE1D
:10169000002845D1A3799A0642D55B060DD520686E
:1016A0000123A26904F124014078FEF7E9FD002836
:1016B00035D1A37923F04003A371E1692068FEF7D7
:1016C00054FF064660BB256AEB7A43F02003EB72B9
:1016D000E3682B77E3681B126B77E389AB77E37BD7
:1016E000EB772369AB761A121B0C2B751B126B75EB
:1016F000EA7601F0C3F80312A875EB75030C000E2F
:101700002B766876AE74EE74A379206823F02003FC
:10171000A37101230371BDE87040FEF7CEBE012026
:1017200070BD2DE9F74F9B460023CBF800300446EF
:1017300089469046FEF714FE002840F0BB80E5790C
:1017400055BBA379990740F1B880A36813EB080F44
:1017500080F0A08004F124030193B8F1000F00F0A1
:101760009980A268C2F30803002B72D120688378A5
:10177000013B03EA522313F0FF03009318D16AB927
:10178000216929B9FFF779F90146002800F0828024
:10179000012905D10225E57128468BE06169F1E751
:1017A0004A1C01D10125F6E72369616103B9216172
:1017B000A3795B060CD520680123A26901994078C2
:1017C000FEF75EFD0028EDD1A37923F04003A3715D
:1017D000D4F800A061695046FFF724F80028D9D05A
:1017E000009B5FEA582600EB03072ED0009A9AF878
:1017F000023032449A4288BF009A494688BF9E1AF6
:1018000033463A469AF80100FEF73AFD0028C9D15E
:10181000A169C91B8E420AD94FF4007209EB41211C
:101820000198FEF765FDA37923F04003A37101251C
:101830007602A368B1443344A360DBF80030A8EB20
:1018400006083344CBF8003087E7A3699F4213D1E1
:10185000A761A0684946C0F30800C0F50076464578
:1018600028BF4646243032462044FEF741FDA37986
:1018700043F04003A371DCE7A268E3689A42E7D231
:1018800001233A4601999AF80100FEF7EBFC002883
:10189000DED087E7A368E268934288BFE360A3795C
:1018A00043F02003A371002D3FF476AF2046FFF7ED
:1018B000EBFE002003B0BDE8F08F0720FAE710B57B
:1018C0000446FFF7E1FE20B92046FEF749FD00B9C6
:1018D000206010BDF8B504460D46FEF741FD0646F2
:1018E000002875D1E379002B40F08C80E368AB428F
:1018F00004D2A27912F0020F08BF1D460022A3688D
:10190000A260002D2FD1A368E268934260D9E36002
:10191000A37943F02003A3715AE00025A368C3F321
:101920000803002BEFD0A2699542ECD0A37904F113
:10193000240713F0400F0BD020680123394640786C
:10194000FEF79EFC002847D1A37923F04003A37142
:10195000206801232A4639464078FEF783FC002898
:101960003AD1A561CFE7206887787F023BB3013B7E
:101970006A1EB2FBF7F2B3FBF7F18A421FD37A4239
:1019800013406169A360ED1A0029C6D0BD4208D991
:10199000A37920689A0724D5FFF76FF8014618BB92
:1019A0003D46A3682B44A360C5F30803002BB4D0C5
:1019B0002068FEF737FF48B100EB5525AEE72169F7
:1019C00069B9FFF75AF80128014603D10226E671EA
:1019D0003046F8BD013001D10126F8E7216161618F
:1019E000D2E7FEF72AFF01464B1CF5D00129EDD9BD
:1019F00023685B699942E9D2A36861613B44A360B3
:101A0000ED1BC3E71E46E3E710B586B0019104461F
:101A100000282BD0002201A902A8FEF7EBFD80B917
:101A2000029B0199236003ABA361134B2046E36142
:101A3000FFF780F9E0B9616959B1CB7ADB0603D4CD
:101A40000520002323600FE0029B1878FEF7FEFCC0
:101A5000A060029B0021DB882046A380FEF752FF96
:101A60000428EDD00028ECD106B010BD0920FBE71A
:101A70000428E5D0E5E700BF100B001010B50446C0
:101A8000FEF76EFC00B9206010BD00007FB5044673
:101A90000D46FEF765FC064620B92DB901462046E5
:101AA000FEF730FF04B070BD01ABA3610B4B2046C5
:101AB000E361FFF7C1FB04280DD1266129462046CA
:101AC000FEF760FC00212046FFF727F8042804BF3A
:101AD00000202061E6E70028E4D1EFE7100B0010BA
:101AE00030B599B018A941F85C0D012206A8FEF79F
:101AF00081FD70B903AB0C931E4B019906A80D93A1
:101B0000FFF718F928B90B9961B1CD7AEA070BD51F
:101B1000072019B030BD21460698FFF71BFC0028AE
:101B2000F7D123E00620F4E7069B1878FEF78EFC39
:101B30000446A0B1EB0612D506A90FA82422FEF791
:101B4000D7FB02210FA81194FEF7DCFE0028E0D19C
:101B50000FA8FFF771FB0028DAD00428D9D106A816
:101B6000FFF73CFB0028D4D1002CD4D10698FEF717
:101B7000A4FCCEE7100B00102DE9F04F93B012AC8F
:101B800044F8340D00F07AFE21460646012209A8E9
:101B9000FEF730FD04460546002840F0A08006AB65
:101BA0000F93654B059909A81093FFF7C3F80446F6
:101BB000002800F09C80042840F091802946099874
:101BC000FEF75BFF0546002800F08480012800F046
:101BD0008A80431C00F089800998FEF768FC04465F
:101BE000002878D1099F29463846FEF71BFE07F1E9
:101BF0003008214604904FF400724046FEF782FB05
:101C00000B2220214046FEF77DFB10222E24C6F336
:101C1000074300939DF800305FFA86FA87F8483052
:101C2000330E01939DF80430C6F3072B87F8493033
:101C3000EBB202939DF8083025FA02F687F84A3095
:101C4000C5F3072303939DF80C305FFA86F9360A33
:101C500087F83B2087F84B302022414607F150009F
:101C600087F8304087F846A087F847B087F8449057
:101C700087F84560FEF73CFB099987F851400878E2
:101C80000B9A0328049B03D1486A824208BF0022B2
:101C900087F86A201012120C87F86420121287F855
:101CA0006B0087F865208F781FB309985A1CC362B0
:101CB0004FF0010303710492FEF7D6FB044650B9BE
:101CC00001464FF400724046013FFEF71BFBFFB296
:101CD000049BE9E7072429460998FFF73BFB2046C8
:101CE00013B0BDE8F08F0224F5E70124F3E70824E0
:101CF000F5E709A8FFF752F904460028EBD11022B6
:101D00000E9B0998DA729DF8002083F816A01A76C7
:101D10009DF8042083F817B05A769DF8082083F8C0
:101D200014909A769DF80C205E75DA760123037183
:101D3000FEF7C3FB0446D2E7100B001030B59FB08E
:101D400001900091012201A90CA8FEF753FC002884
:101D500069D10C9B0199159303AB1293374B0CA8D7
:101D60001393FEF7E7FF00285DD1119900295CD09D
:101D700015220B3106A8FEF7BBFA24220CA915A8E0
:101D8000FEF7B6FA6846FEF7D3FA00284FDB009953
:101D900015A8FEF7CFFF00284BD0042843D115A883
:101DA000FFF7FCF800283ED11A9D13220DF11A010D
:101DB00005F10D00FEF79CFA9DF818300C9C43F0DD
:101DC0002003EB7201232371EB7ADB0624D5179BEA
:101DD0000E9A9A4220D029462078FEF737FB01461A
:101DE0002046FEF71FFD014628B32046FEF7BDFB47
:101DF000C8B90C9A92F851302E2B0DD1179B19129D
:101E000082F86A301B0C82F864301B1282F865304D
:101E1000012382F86B1013710CA8FFF7DFF910B9DA
:101E20000C98FEF74AFB1FB030BD0420FBE70B20E7
:101E3000F9E70820F7E70220F5E700BF100B0010D4
:101E40002DE9F04F012989B005908846154600F329
:101E5000898205A8FEF76CFA0028C0F285824C4BF7
:101E600053F82040002C00F081820023C6B223707A
:101E70003046FEF7EBF9C20700F17A82430700F122
:101E8000798207AA01213046FEF708FA18B101202D
:101E900009B0BDE8F08F079B7F2BF8D9B8F1000F90
:101EA00014BF4FF0000A4FF03F0A6A1EA3EB0A036B
:101EB0002A42079302D1002D40F06B824FF4FA6161
:101EC0000022B3FBF1F1334830F81250A94201D29D
:101ED0000132F9E7304931F81250B5F5007F15D3DA
:101EE0006D0A802D28BF80250195019AB3FBF2F57C
:101EF00040F6F572954240F259824FF6F5729542DE
:101F000000F23A8202356D00022755E2002DE8D139
:101F100001220192E9E706AA03213046FEF7BEF945
:101F2000002840F03382069B013BB3F5004F80F060
:101F30002D82069A032F02F1FF335B44C2F10002A7
:101F400003EA020308BF029AA3EB0B0304BFD218F3
:101F50009944069308BF1346079A14BFED180293DD
:101F60000399A2EB09035B1B5B1A0199022FB3FBD8
:101F7000F1F3049312D140F6F5730499994240F2BB
:101F80003182B2F5803F2CBF0623042310E000BF4E
:101F90000C0B001040FA00002AFA0000032F40F05A
:101FA0003F814FF6F573049A9A4240F21B820C234C
:101FB000B8F1000F40F03D8104F1300B4FF4007296
:101FC00041465846FEF79EF984F8F231FE2384F824
:101FD000F33143F6C163079A01200AEB0201B1FB1A
:101FE000F3F18B0843F03F0384F8F4313F2384F886
:101FF000F631131284F8FB31130C84F8FC315523AD
:1020000084F82E32AA2384F8FA21120E84F8EF0104
:1020100084F8F001069184F8F51184F8FD2184F824
:102020002F3284F8F181034684F8F78184F8F8812F
:1020300084F8F981424659463046FEF721F90028D6
:102040007FF425AF4FF0F80B04F130084FF4007225
:1020500000214046FEF756F90B22D0494046FEF7D4
:1020600047F900230222032F84F83B3084F84130E3
:1020700084F83C2018BF02239DF8042084F84230E5
:1020800084F83D200122079B84F84020B3F5803F6F
:102090004FEA232221BF84F8503084F851201A0CD3
:1020A0001B0E34BF84F8433084F853304FF03F03A5
:1020B00084F83E904FEA292984F83F9084F848300C
:1020C0004FF000094FF0FF0334BF84F8442084F838
:1020D000522084F84A3084F845B084F8499084F856
:1020E0004B9084F84CA084F84D9084F84E9084F87E
:1020F0004F9000F0C3FB032F06904FEA20224FEAD7
:10210000104340F0998084F875302B1284F85530D4
:102110002B0C84F856302B0E84F85730022384F8A9
:102120005C30012384F86030062384F86230802319
:1021300084F87030292384F87420132284F8730003
:102140009749000E84F8760084F8545084F85D9026
:1021500084F85E9084F85F9084F8619084F86390CE
:1021600084F8723004F17700FEF7C2F8552384F842
:102170002E32AA23524684F82F324146012330469C
:10218000FEF77EF800287FF482AE032F06D10123EC
:102190000AF1060241463046FEF772F84FF400722B
:1021A00000214046FEF7AEF8032F5ED0012F7D4B95
:1021B00018BF6FF0FF03FF2243EA0B034FEA136BD4
:1021C000069384F8303084F8312084F8322084F883
:1021D00033B0029B414603F10109029A01233046C4
:1021E000FEF74EF8014600287FF451AE4FF400721E
:1021F0004046FEF787F801230693069B9D4252D97D
:1022000001234A464146304609F1010BFEF738F8F2
:1022100000287FF43CAE069BD94601330693ECE7D9
:10222000012F7FF4AEAEB2F5803F2CBF0623012311
:10223000BEE64FF0F00B07E784F859302B1284F814
:102240004730802384F85430292384F85700000E47
:1022500084F8582084F85A0084F8465084F85630A0
:102260001322514904F15B007EE76BF0FF030693F4
:1022700084F83030FF2384F8313084F8323084F829
:10228000333084F8343084F8353084F8363084F8CC
:10229000373084F8383084F8393084F83A300F23F6
:1022A00084F83B3095E7019B039A032F18BF134630
:1022B0004A460193D51801234146304602F1010BED
:1022C000FDF7DEFF00287FF4E2ADAB455A46F2D1C0
:1022D000032F3ED1522384F8303084F8313061230B
:1022E000412284F8323084F81732049B84F833207A
:1022F000013B84F81622C3F3072284F8183284F8CD
:1023000019221A0C1B0E84F81B32022384F81C328B
:10231000552384F82E32AA23722184F82F32012308
:1023200084F8141284F8151284F81A2284F81D0215
:102330000AEB030284F81E0284F81F02414630466D
:10234000FDF79EFF01230AF1070241463046FDF7E3
:1023500097FF002230461146FDF7A0FF003018BF5E
:10236000012095E5132093E50B2091E50C208FE5E6
:1023700003208DE50A208BE50022AD0005F207253C
:102380006D0A032703924FF020091CE001230693F6
:10239000CFE5B5F5007FBFF4A3ADA2E556FA000086
:1023A00062FA000000FFFF0076FA0000012705EB4B
:1023B000450501356D08033520224FF0010905F26E
:1023C000FF156D0A039209EB0A020292039A05EBCC
:1023D000020B029A9344019AA2EB0A025A449342D6
:1023E000BFF499AD0E2053E5036810B5DB690446D0
:1023F00098470023E38123682046BDE810401B6A0C
:10240000184738B504460368DB6998472368E589AF
:1024100020461B6A9847284638BD70B504460D46CD
:102420000368DB6998472368E5812046BDE8704072
:102430001B6A18477047704738B5054655F8083B82
:102440000446DB6998472846FFF718FB23680546D2
:102450001B6A204698471CB1236820469B69984711
:10246000284638BD10B5044601F0F2FE204610BDE6
:1024700030B5044654F82C3B89B00546DB699847D3
:102480004FF48073694605F1080006940793FFF73F
:10249000FDFA10B99DF8093033B92B6828461B6A3C
:1024A0009847002009B030BD95F82C302BB90D228B
:1024B0000DF10901204604F0DDF82B6828461B6A5F
:1024C00098472046EEE7000070B50D460646064BDD
:1024D00000F10804036042600FCD0FC40FCD0FC49C
:1024E0002B683046236070BD94FA000000207047CE
:1024F00038B5044603685B6A984723682569204617
:102500009B6A9847284638BD7047704738B50546DE
:1025100055F8043B04465B6A98472846FFF7CFF915
:10252000236805469B6A204698471CB123682046CD
:102530001B6A9847284638BD10B5044601F088FE4E
:10254000204610BD38B5044654F8043B05465B6A86
:1025500098472046FFF798F804462B6828469B6A60
:102560001CB198474FF0FF3038BD9847204638BD22
:1025700070B51646036804465B6A0D469847022EFE
:102580000DD123691D442946201DFFF7A3F92368B7
:102590009B6A40B1204698474FF0FF3070BD012E36
:1025A000F1D1E368EEE720469847E06870BDF7B5E3
:1025B00005460E46174655F8043B04465B6A9847A5
:1025C00001AB3A4631462846FEF7BAFF23689B6ABC
:1025D00028B1204698474FF0FF3003B0F0BD2046A9
:1025E00098470198F9E7F7B505460E46174655F89E
:1025F000043B04465B6A984701AB3A46314628469D
:10260000FFF78FF823689B6A28B1204698474FF060
:10261000FF3003B0F0BD204698470198F9E700006D
:1026200084B010B5044603A880E80E00074B0146AD
:1026300023608C9B201DC4F828324FF4097204F0EB
:1026400019F82046BDE8104004B07047C0FA0000F9
:102650004FF0FF3070470020704700207047002087
:102660007047704738B5044603685B6C9847012291
:1026700004F5107104F11000FEF79AFE0546236878
:1026800020469B6C9847281C18BF0120404238BD4B
:1026900038B50C46036805465B6C98472046FFF743
:1026A0006BFA04462B6828469B6C9847201C18BF81
:1026B0000120404238BD38B5044603685B6C98473A
:1026C00023682046DB6B9847024630B123682046DA
:1026D0009B6C98474FF0FF3038BD04F51071FEF742
:1026E00067FE0546236820469B6C9847281C18BF48
:1026F0000120404238BD30B50D4603688BB05B6C9D
:1027000004469847294601A8FFF77EF930B12368AF
:1027100020469B6C984700200BB030BD4FF498705A
:1027200001F08AFD0546D4F8442201A9FFF7CCFE4A
:10273000236820469B6C98472846EDE738B5054648
:1027400003685B6C98474FF40072002105F5107028
:10275000FFF776FB04462B6828469B6C1CB1984714
:102760004FF0FF3038BD9847204638BD70B50C4655
:102770001646036805465B6C984720463146FFF7CE
:10278000DDFA04462B6828469B6C1CB198474FF035
:10279000FF3070BD9847204670BD38B50C460368C1
:1027A00005465B6C98472046FFF79AF904462B686C
:1027B00028469B6C1CB198474FF0FF3038BD9847B6
:1027C000204638BD70B504460E4615460368ADF583
:1027D000D56D5B6C9847204602F0A4FB334604F5A8
:1027E0001072254988A804F049FBAE0719D415F0EA
:1027F000010F14BF02220122A80505D569054CBFAF
:1028000042F0080242F0100288A998A8FEF7F8FDED
:1028100048B1236820469B6C984700200DF5D56D84
:1028200070BD0322E8E72B0703D59B9998A8FFF713
:1028300051F80DF284464FF4097298A9304603F01E
:1028400019FF4FF40B7001F0F7FC0546D4F8443241
:102850004FF406720DF592616846869303F00AFF05
:1028600096E80E002846FFF7DBFE236820469B6CA7
:1028700098472846D2E700BFECFA000007B501A848
:1028800002F024FF01A803F0CDFA02218368C26898
:10289000DB0243EA0243426843EA4213026892FBC6
:1028A000F1F2134342690069503A43EA426301304E
:1028B00043EA405003B05DF804FB000038B5012046
:1028C00001F0BAFC084C054602F08AFE236803B901
:1028D000256002F0AFFE23689D4203D015B1284663
:1028E00001F0B6FC206838BD100D001070B504462C
:1028F0000E4602F073FB104B2360FFF7DFFF0F4B18
:10290000C4F844021D682DB131460D4802F056FE50
:10291000204670BD1C60302384F8415284F8403258
:10292000204602F0FFFA2A4604F5107104F1100067
:10293000FEF73EFDECE700BF30FB0000140D001079
:10294000F3FA0000094B10B50360094B04461A68FE
:10295000904206D1002200F5107110461A60FEF771
:1029600027FD204602F046FB204610BD30FB00004C
:10297000140D001030B500230446064D221A914272
:1029800005DD14F8012B82EA4303EB5CF6E71846F9
:1029900030BD00BF7CFB000030B500230446084D6D
:1029A000221A914209DD14F8012B82EA132235F82C
:1029B000122082EA03239BB2F2E7184630BD00BF23
:1029C0007CFC0000034610B107C983E8070070478C
:1029D00070474268816812F0010F4FEA6202036893
:1029E0001CBF8858C3588818184780F8D6127047FB
:1029F00080F8D712704738B5D0F8CC32044601338E
:102A000024D0D0F8D83200F5217013F002050FD091
:102A100002F025FBD4F8CC32984217D1D4F8D83242
:102A200023F00203C4F8D832042384F8D43238BD2A
:102A300002F015FBD4F8CC3298421FBFD4F8D8323C
:102A400084F8D45243F00303C4F8D83238BD10B52B
:102A50000446FFF7D0FFD4F8D80280F00200C0F39C
:102A6000400010BD10B50446FFF7C5FF94F8D4022E
:102A700010BD10B50446FFF7BEFFD4F8D80210BD54
:102A800008B5FFF7B8FF08BDF8B500F512750646A2
:102A900028460F4602F05CFC06F51676FF2130460C
:102AA00002F032FCC4B224B9284602F08DFCB842D0
:102AB000F4DB284602F06BFC284602F08DFC201C5B
:102AC00018BF0120F8BD0000D0F86C3210B50133FA
:102AD000044604D124220849084802F05DFDD4F8D8
:102AE0007832D4F8702204F516701A60FF21BDE820
:102AF000104002F009BC00BF88FE0000C7FE0000C5
:102B000038B5D0F86C320446013304D124220D4983
:102B10000D4802F041FDD4F87C32D4F87022FF2138
:102B20001A6004F5167002F0EFFB4FF4FA712046BC
:102B3000FFF7AAFF054610B92046FFF7C5FF284654
:102B400038BD00BF88FE0000C7FE000010B5044677
:102B5000FFF7D6FF20B12046FFF7B6FF002010BDDB
:102B6000012010BD2DE9F04F07460D4690464FF06D
:102B7000030987B01C46130E0093C2F30743019369
:102B8000A1F1560AC2F307230293A1F1690B5FFA80
:102B90008AF303935FFA8BFB039B012B53D9BBF1A1
:102BA000010F50D99DF800308DF810508DF811307C
:102BB0009DF804308DF814808DF812309DF808309F
:102BC0008DF8133097F8D532002B53D0052104A887
:102BD000FFF7D0FE400040F001008DF815004FF0E7
:102BE000000A07F5167604AB13F80A1030460AF10E
:102BF000010A02F089FBBAF1060FF4D14C2D03D182
:102C0000FF21304602F080FB4FF0090AFF213046D9
:102C100002F07AFB030602D5BAF1010AF6D15FFA97
:102C200080FABAF1FF0F21D01AF0080F4DD1BAF196
:102C3000010F1BDC4D2D25D1C4B1FF21304602F020
:102C400063FB206012E0002377211A463846FFF725
:102C500089FF0128824609DC3846FFF735FF3846F0
:102C6000FFF74EFF00289DD14FF0FF0A504607B0F6
:102C7000BDE8F08F05F0F703402BA7D001238DF8B6
:102C80001530ACE7482D01D07A2DEFD1002CEDD0D6
:102C9000FF21304602F038FB00062060FF2130465D
:102CA00002F032FB2268FF2142EA004020603046F9
:102CB00002F02AFB2268FF2142EA00202060304611
:102CC00002F022FB22681043BBE7B9F101097FF44F
:102CD00063AFCBE7F8B505460C4616461F46FFF72F
:102CE0000FFF58B121463B4632462846FFF73AFFD0
:102CF00004462846FFF7E8FE2046F8BDFF24FBE720
:102D000038B504460D46FFF776FED4F8D832DB0717
:102D100002D584F8D55238BD94F8D5324DB1002B88
:102D2000F9D101227B2184F8D5222046FFF7D2FF7A
:102D300038BD002BEFD02B462A467B212046FFF7DB
:102D4000C9FFE6E72DE9F84300F51274074620466F
:102D50000E46904602F0FCFA07F51675FF2128464C
:102D600002F0D2FA5FFA80F9B9F1FF0F05D12046DF
:102D700002F02AFBB0F5FA7FF0DB204602F007FBF9
:102D8000204602F029FBB9F1FE0F43D197F8D63265
:102D900033B300221021284602F088FA002444456B
:102DA0004FF6FF71284607DA02F0AEFA03123355E8
:102DB000331958700234F2E702F0A6FA002284B206
:102DC0000821284602F072FA97F8D532FBB1414645
:102DD0003046FFF7E1FD231A58425841BDE8F88319
:102DE0003446A31B98454FF0FF01284604DD02F04E
:102DF0008BFA04F8010BF4E702F086FAFF2104468F
:102E0000284602F081FA40EA0424A4B2DCE701205B
:102E1000BDE8F8830020BDE8F8837FB5D0F8D8324C
:102E20000446DB074CD403252046FFF769FE002843
:102E300043D0002349211A462046FFF793FEE0BB0A
:102E4000102269462046FFF77DFF06462046FFF721
:102E50003BFE86B39DF800309B11012B9DF8073097
:102E60000BD11804BDF8083000F47C105BBA9BB29B
:102E700018430130800204B070BD9DF808009DF831
:102E80000A20800940EA83009DF806309B0203F483
:102E9000406318439DF8093001305B0003F00603DE
:102EA00043EAD213023398409DF8053003F00F0334
:102EB0009840400ADFE7013DB6D12046FFF704FE07
:102EC0000020D8E790F8D5322DE9F04106460D46AE
:102ED0009046BBB34FF400712846FFF75DFD0746EF
:102EE0004FF4FA713046FFF7CFFD48B306F516747C
:102EF0004146204602F008FA96F8D6322BB300225B
:102F00001021204602F0D2F90026AB19A95D5B78AA
:102F1000204643EA0121023602F0F6F9B6F5007FB9
:102F2000F3D13946204602F0EFF90022082120466D
:102F300002F0BCF9FF21204602F0E6F900F01F0084
:102F4000BDE8F0814FF6FF77CAE76E1E05F2FF1568
:102F500016F8011F204602F0D7F9B542F8D1391210
:102F6000204602F0D1F93946204602F0CDF9E1E7DA
:102F70002DE9F8430446894617461D46002620469B
:102F8000FFF7BEFD804618B394F8D4325221032BCC
:102F900014BF7A023A4600232046FFF7E3FDB8B992
:102FA0004FF4007249462046FFF7CCFEB0B9013617
:102FB00000234C211A462046FFF7D4FD40B9204695
:102FC000FFF782FD15B94046BDE8F883022ED6DD35
:102FD0002046FFF779FD4FF00008F4E7013D07F1C7
:102FE000010709F500794FF00006D9D12E46DFE739
:102FF0002DE9F047D0F8D842054614F0010489467F
:10300000174632D1012B07D9FFF7B2FF80F001003C
:10301000C4B22046BDE8F08703264FEA422828467E
:10302000FFF76EFD20B92846FFF74EFD0124F0E7BB
:1030300095F8D4220023032A0CBF3A464246512178
:103040002846FFF78FFD0028EDD14FF40072494666
:103050002846FFF777FE82462846FFF735FDBAF18E
:10306000000FD6D1013EDAD1DDE70324D1E72DE907
:10307000F74F04468B46174603264FEA422A20465E
:10308000FFF73EFD054658B394F8D4220023032AE7
:103090000CBF3A46524658212046FFF763FD804652
:1030A000F0B9FE2259462046FFF70CFF8146204624
:1030B000FFF70AFDB9F10A0F10D0B9F10C0F0FD0CC
:1030C00094F8D76286B101AB42464D212046FFF706
:1030D00001FE28B9019B1BB9354605E0013ECED162
:1030E0002046FFF7F1FC0025284603B0BDE8F08F2D
:1030F0002DE9F74F0546894692469B461C461746E2
:103100008846002695F8D432012B0CD12846FFF7CB
:10311000F7FC88B92846FFF7D7FC4FF00008404677
:1031200003B0BDE8F08F0023224657212846FFF761
:10313000D1FD0028EAD0EDE795F8D4325921032BD0
:1031400018BF7F0200233A462846FFF70BFD0028F0
:10315000E0D1FC2241462846FFF7B4FE0528074689
:1031600022D001364FF4FA712846FFF78DFC8046D5
:103170000028CFD004BBFD2105F5167002F0C4F87D
:103180002846FFF7A1FC95F8D762002EC7D001AB07
:1031900022464D212846FFF79DFD0028BAD1019B0C
:1031A000002BB7D1B046BAE7013C08F500784FF0E4
:1031B0000006CED12646D5E700234C211A462846E4
:1031C000FFF7D0FC04460028A4D12846FFF77CFC7A
:1031D0000A2F9FD195F8D432012B09D10024022E59
:1031E00009EB442804EB0A07ABEB04048ADD91E702
:1031F0002846FFF785FC0028F0D0234622465621BA
:103200002846FFF7AFFC40B9042228460DEB020127
:10321000FFF798FD28B1019C24BA2846FFF754FC1B
:10322000DDE70446F9E738B5D0F8D84214F0010FCD
:103230000CD164070CD4012B05D9FFF759FF80F09E
:103240000100C0B238BDFFF712FFF8E7032038BD18
:10325000022038BDF0B504460325144E91B0204637
:10326000FFF74EFC28B92046FFF72EFC002011B0D6
:10327000F0BD0023324646212046FFF773FC0028AC
:10328000F1D1402269462046FFF75CFD0746204603
:10329000FFF71AFC3FB19DF8100000F00F00431E2D
:1032A00058425841E3E7013DD9D1DCE7F1FFFF8007
:1032B0002DE9F043044687B002A802F09BF82046AF
:1032C000FFF799FBD4F8D802860755D4C50753D524
:1032D00004F516758449284602F000F80327DFF844
:1032E0001C82DFF81C92D4F86C32013304D1242202
:1032F0004146484602F050F90A26D4F87832D4F80C
:1033000070221A60FF21284601F0FEFF013EF9D12C
:103310003246334640212046FFF7DCFC01280246B6
:103320007BD0013FDFD10423D4F8D80284F8D43213
:1033300022E03146284601F0D1FF94F8D432012B27
:1033400007D000236A211A462046FFF7C3FC002855
:10335000E9D194F8D432032B08D000234FF4007243
:1033600050212046FFF7B6FC0028DCD1D4F8D80263
:1033700020F00100C4F8D80207B0BDE8F08301AB2B
:1033800000227A212046FFF7A5FC0128CBD1019B22
:10339000DB02C8D502A801F0DBFF544F00233A46F8
:1033A00069212046FFF796FC0128064605D102A8B0
:1033B00002F00AF8B0F5FA6FF0DB02A801F0E7FFBF
:1033C00002A802F009F80EB302A801F0C1FF002321
:1033D0004FF4801241212046FFF77CFC012806466D
:1033E00005D102A801F0F0FFB0F5FA6FEFDB02A8FB
:1033F00001F0CDFF02A801F0EFFF002E93D10123D1
:103400003B4984F8D432D4F8D03269E002233949F8
:1034100084F8D432D4F8D03262E094F8D5323BB19B
:1034200033467B212046FFF755FC01287FF47BAF14
:1034300001AB4FF4D57248212046FFF74BFC012821
:103440009DD1019BC3F30B03B3F5D57F7FF46BAF25
:1034500001AB00227A212046FFF73CFC01287FF4D3
:1034600062AF019BD9027FF55EAF02A801F070FF49
:103470001E4F00233A4669212046FFF72BFC012806
:10348000064605D102A801F09FFFB0F5FA6FF0DB08
:1034900002A801F07CFF02A801F09EFF002E7FF43D
:1034A00042AF01AB32467A212046FFF713FC0028D9
:1034B0007FF439AF019BD4F8D0125A004CBF0323DC
:1034C00002230C4E84F8D432B1427FF733AF20464A
:1034D000FFF7C0FE00283FF42CAFD4F8D0320649E5
:1034E0008B42D8BF194625E7801A0600000010401D
:1034F000002D310140787D0180F0FA0288FE000045
:10350000C7FE0000C36810B504460BB19B6898471E
:10351000204610BD70B505460E4686B08DE80C00FD
:1035200002F05EF8009B02A90293019B28460393D8
:10353000054B0496059301F031FE02A8FFF7E2FF68
:1035400002F078F806B070BD7CFE000070B505464C
:103550000E4686B08DE80C0002F042F8009B02A9EE
:103560000293019B28460393054B0496059301F0B3
:10357000EDFD02A8FFF7C6FF02F05CF806B070BDD3
:103580007CFE00002DE9F04F044693461E460D4692
:103590004FF0FF398BB015999DF85C70FFF7A6F9D5
:1035A000404B04F5167A236004F5127001F022FFF7
:1035B000334629465A4604F51B75CDF8009050460F
:1035C00001F05AFE18220021284603F0C9F84FF0F6
:1035D0000108284600250122149904F5217601F0FE
:1035E00045FF1699304601F06DFD189B2946C4F839
:1035F000D032584684F8D45284F8D58284F8D65212
:1036000084F8D782C4F8D88200F07EFE2A460821CA
:10361000504601F04BFE47450FD10321304601F0E3
:1036200011FD214B03950293C4F8CC7202AB0CCB75
:1036300021463046FFF76EFF10E0022F12D1032122
:10364000304601F0FFFC184BC4F8CC5204930595AA
:1036500004AB0CCB21463046FFF778FF20460BB079
:10366000BDE8F08F032F0AD12946304601F0EAFC6D
:103670000D4BC4F8CC520693079506ABE9E7042F2F
:103680000CD12946304601F0DDFC074B0995089323
:103690000AABC4F8CC8213E90C00C9E7C4F8CC9299
:1036A000DCE700BFE8FE0000812A000010B50446F8
:1036B000FFF701F8D4F8D832002043F00103C4F832
:1036C000D832042384F8D43210BD000010B504466B
:1036D000054B036000F5217001F0C4FC2046FFF7A4
:1036E00031F9204610BD00BFE8FE000010B50446C9
:1036F000FFF7ECFF204600F0ABFD204610BD0000B8
:1037000073B54FF4805312222F49304803F066FB03
:1037100040F201622E492F48FFF754F80446002872
:1037200043D02D4801F014FE40F201152B4E013D0F
:1037300017D023684FF480521B68314620469847C3
:10374000B0F5805FF3D0244801F021FE19221E4914
:10375000234803F043FB204802B0BDE8704001F06D
:103760003BBE1D4801F013FE236820465B68984766
:1037700018B1202214491B48EBE7174801F017FE47
:103780000AF052FD0EA3D3E900230AF0DDFE024643
:103790000B46002014490AF0D7FE2222CDE9000191
:1037A0000949124803F01AFBD5E7262206491048BA
:1037B00002B0BDE8704003F011BB00BFAFF3008062
:1037C0000000000080842E41310001003D00010016
:1037D0006D000100301D00100C200010180D0010AD
:1037E0007B000100960001000000F03FBA000100DC
:1037F000E20001000000000073B54FF480532D2259
:103800003149324803F0EAFA002231493148FEF7E3
:10381000D9FF044600284BD02F4801F099FD002520
:103820002E4E23684FF480529B68314620469847BD
:10383000B0F5805F01D10135F3E7274801F0A7FD1E
:10384000B5F5807F0AD036221F49254803F0C6FA15
:10385000214802B0BDE8704001F0BEBD236820469B
:103860005B68984718B1382217491E48EEE7184997
:103870001848FEF792FF18B13A2213491A48E5E7B3
:10388000154801F094FD0AF0CFFC0DA3D3E9002305
:103890000AF05AFE02460B46002014490AF054FE74
:1038A0003C22CDE900010849114803F097FACFE71F
:1038B0003F2205490F4802B0BDE8704003F08EBAC0
:1038C0000000000080842E4131000100A0FF0000B4
:1038D0006D000100301D00100C200010180D0010AC
:1038E000CFFF000096000100E9FF00000000F03F5C
:1038F000BA0001000E00010070B5462211491248BD
:1039000003F06CFA11491248FEF7F5FE044668B15F
:103910000C4E104D236820465B689847034658B10B
:103920004D223146284603F059FAF3E70346502268
:103930000449094803F052FA23682046BDE8704064
:103940001B6818473100010037FF00005EFF0000D0
:10395000301D001064FF000077FF000037B55822CB
:103960004B494C4803F03AFA01214B48FFF7C8F99C
:103970005A224749494803F031FA01214648FFF7E6
:1039800034F85C224249464803F028FA01214248B3
:10399000FFF72EF8002001F099FE03F033FA00241F
:1039A000404D03F039FA28550134B4F5805FF8D161
:1039B0004FF07E5001F0B4FE3748FFF748F838B9B1
:1039C00068223349384803F009FA012001F052FF18
:1039D0006D222F49354803F001FA2F48FEF742FEC9
:1039E00018B16F222A493248EDE77222284931483E
:1039F00003F0F4F9752226492F4803F0EFF9264821
:103A0000FFF730F870BB782221492C4803F0E6F923
:103A10002148FFF702FA842203461D49284803F093
:103A2000DDF91D48FFF7F9F90AF0EEFB4FF07D5381
:103A300000220AF05FFC8522CDE9000114492148EB
:103A400003F0CCF9FFF758FFFFF75AFEFFF7D4FE5B
:103A50001148FFF72BFEA0220D491B4803F0BEF9C9
:103A60000020B3E7012803D17A2209491748CDE79E
:103A7000022803D17C2206491548C7E7032803BF63
:103A80007E220349134880221CBF01491248BDE72A
:103A90003100010007010100301D0010220101006A
:103AA00046010100180D00106E0101008D0101009A
:103AB000B0010100C6010100DE010100FA010100B0
:103AC0005E0201007A0201009B0201000E02010069
:103AD00021020100330201004702010030B5144CFD
:103AE00087B0144D144801F085FC182200212046AF
:103AF00002F036FE29462046002201F0B5FC0F4BAD
:103B00000F4C0493032303930E4B009502930E4B2B
:103B10000E4A01930E490F4B2046FFF733FD204616
:103B20000D4A0E4907B0BDE8304000F06FBB00BF42
:103B3000181D001045C009200C20001000B4C4045A
:103B4000301D001017C0092034FF000011C00920EB
:103B500012C009200FC00920C8000010CD36000097
:103B600010B50C4CA268A4681346B4F1805F0CD267
:103B7000131F094A53F8044F42F8044F074CA2425E
:103B8000F8D1044A4FF080539360103043F820106E
:103B900010BD00BF00ED00E0FCFFFF0FC0000010F3
:103BA000431C10B5044604D106480749152201F00C
:103BB000F3FC2046002100F07FFB04F01F040120ED
:103BC000A04010BDCCFE0000B202010038B5054691
:103BD0004B1C0C4629600FD00846FFF7E1FF24F08C
:103BE0001F0404F11803EB6004F11C032B6104F1C2
:103BF000140368606B61AC6038BD006800F084BB82
:103C000038B50368044601330D4604D10A480B4910
:103C10002C2201F0C1FC15B1012D06D038BDA268DF
:103C20006168136823EA010303E0A268636811680E
:103C30000B43136038BD00BFC7FE0000B202010095
:103C40002DE9F843344CD4F80490D4F80880676A1E
:103C5000A66AB9F1000F24D0B9FA89F52F4BC5F146
:103C60001F05EDB253F8250018B12D4B01211B683B
:103C700098470123AB40E360C3EB0909E9E7B8FAD1
:103C800088F5264BC5F11F05EDB253F8250018B194
:103C9000234B02211B6898470123AB40E360C3EB31
:103CA0000808B8F1000FEAD10AE0B7FA87F5C5F1C4
:103CB0001F05EDB20F2D06D90123AB40E362FF1AB9
:103CC000002FF2D116E0154B05F1200253F8220027
:103CD0000028F1D0124B01211B689847ECE7B6FA97
:103CE00086F5C5F11F05EDB20F2D06D90123AB40B6
:103CF000E362F61A002EF2D10BE0084B05F1200228
:103D000053F822000028F1D0054B02211B68984788
:103D1000ECE7BDE8F88300BF80800240202000105F
:103D20001C20001070B51E464B1C044623D0134BBC
:103D30001A6021F01F03124A036001F01F0321F0F3
:103D40005F0191424360154602D00E4801F036FCF7
:103D500023686268AB420C4918BF203241F82260E8
:103D6000A26015200949FFF7FBFE094B4FF4001232
:103D70001A60002070BD084670BD00BF1C200010F6
:103D800000C009200903010020200010413C000070
:103D900000E100E08268024B002143F822107047E6
:103DA0002020001030B503682D4DAB4203D02D4CC0
:103DB000A34208D00FE044680123A3402A4C012904
:103DC000E36030D10EE044680123A340264C012972
:103DD000E36236D114E0012920D1AB4202D0A342E4
:103DE0000ED030BD012340681F491AB10A698340D3
:103DF000134303E00A69834022EA03030B6130BDE9
:103E00000123406818491AB10A6B8340134303E049
:103E10000A6B834022EA03030B6330BDAB4202D03E
:103E2000A3421BD10DE0012340680F491AB14A6932
:103E30008340134303E04A69834022EA03034B6152
:103E400030BD0123406808491AB14A6B83401343CF
:103E500003E04A6B834022EA03034B6330BD00BF9B
:103E600000C0092040C009208080024038B50368A6
:103E7000044601330D4604D105480649242201F0C9
:103E80008BFB63680DB1E26800E02269136038BD06
:103E9000C7FE00003603010000B599B001F0A0FB99
:103EA00068461B4901F0F9FA06A81A4901F0F5FA2B
:103EB0000CA8194901F0F1FA12A8184901F0EDFA1D
:103EC00068460121FFF7D2FF06A80021FFF7CEFFC9
:103ED0000CA80021FFF7CAFF12A80121FFF7C6FFB7
:103EE000962001F029FC68460021FFF7BFFF06A8D5
:103EF0000121FFF7BBFF0CA80121FFF7B7FF12A8B4
:103F00000021FFF7B3FF962001F016FCD8E700BFB1
:103F100032C0092034C0092035C0092037C009202B
:103F200030B505460C46A1B001F05AFB294668465B
:103F3000224606F0A9F9051E03DC01F07BFB21B047
:103F400030BD094B1B6823B908480949094A00F0EC
:103F50004DFD0024AC42F0D01DF80410034800F0E1
:103F6000A9FC0134F6E700BFF0210010682300101F
:103F700002C0092003C009200FB407B504A951F8F5
:103F8000040B0191FFF7CCFF03B05DF804EB04B024
:103F90007047000008B5084B1B685BB90748084923
:103FA000084A00F023FD05484FF41651BDE80840CB
:103FB00000F00ABB08BD00BFF0210010682300100C
:103FC00002C0092003C0092070470000022810B574
:103FD000044601DC002010BD01F046FC092303600B
:103FE000094B033C53F82400002243F8242040B13D
:103FF00003681B699847041EECDA01F035FC644243
:1040000004604FF0FF3010BDEC20001070B5054685
:104010000E46144601F028FC0923022D03600EDC35
:10402000124B1B680BB9FFF7B5FF35462644B54266
:1040300019D00F4815F8011B00F03CFCF7E70D4BB9
:10404000033D53F8250058B103682246DB6831462A
:104050009847041E07DA01F007FC6342036002E0A0
:104060004FF0FF3070BD204670BD00BFF021001042
:1040700068230010EC20001070B504460D4616466B
:1040800001F0F2FB0923022C03600ADC104B1B68D1
:104090000BB9FFF77FFF0F4800F0C8FB2870012025
:1040A00070BD0D4B033C53F8240058B103682946FA
:1040B0009B6832469847041E07DA01F0D5FB63423D
:1040C000036002E04FF0FF3070BD204670BD00BFBE
:1040D000F021001068230010EC20001010B50446F9
:1040E00001F0C2FB0923022C03600EDD0A4B033CE6
:1040F00053F8240058B103689B699847041E09DAF5
:1041000001F0B2FB6442046001E0012010BD4FF0F9
:10411000FF3010BD002010BDEC20001070B504462B
:104120000E46154601F0A0FB0923022C03600BDDAF
:10413000084B033C53F8240040B1036831462A463B
:10414000BDE87040DB691847002070BD4FF0FF30BC
:1041500070BD00BFEC200010022808B504DC4FF44D
:1041600000534B60002008BD01F07EFB0923036073
:104170004FF0FF3008BD08B5012001F07BFB704710
:1041800008B5FFF721FFFFF7FAFF08BD704708B534
:10419000FFF7FCFFBDE80840FFF7E0BB0C4A10B595
:1041A00013681844EFF30881884205D3094B0C22A9
:1041B0001A604FF0FF3010BD0749096821B1074C64
:1041C000246821448842F1D21060184610BD00BF17
:1041D000CC00001094230010E8200010EC21001007
:1041E000094C08B523680546986801F019FC236856
:1041F000D86801F015FC01F03BFA08B101F03AFA79
:104200000DB1FFF749FEFEE7E40000100120704702
:10421000704770477047704708B5FFF7F9FF08BD52
:1042200008B5FFF7F6FF08BD08B5FFF7F3FF08BDB7
:1042300008B5FFF7F0FF08BD10B501F023FF0446F5
:1042400010B9024801F0BAF9204610BD5604010029
:1042500008B101F01FBF7047034653F8042B10B597
:10426000044602B9036022689A4204D00348044914
:10427000592201F091F9206810BD00BF920401009D
:10428000A604010010B504460948FFF7E5FF002326
:10429000084A52F82310A14204BF002142F823101B
:1042A0000133402BF4D10248FFF7D6FF10BD00BF09
:1042B000E0200010EC20001038B5431C04460D46E9
:1042C00004D10F480F49152201F066F904F160404E
:1042D000A0F51C2003099B0003F1804303F5303354
:1042E00000F00F02520018680321914020EA0101FA
:1042F00019601868954045EA0001196038BD00BF93
:10430000CCFE0000F704010038B5431C05460C46FE
:1043100004D118481849202201F03EF905F1604007
:10432000A0F51C2043099B0003F1804303F53033C3
:104330009D6EC4F3800200F01F0102FA01F125EA2C
:1043400001059D669D6E2943996692B903099B00FC
:1043500003F1804303F5303300F00F025200186C74
:104360000321914020EA01011964196C94400C4327
:104370001C6438BDCCFE0000F7040100074AD2F8E7
:10438000C43043F40073C2F8C430054B00221A72E3
:104390001A7A42F001021A72704700BF00C00F4043
:1043A00000400240024B187A00F00100704700BF45
:1043B0000040024000B50E4B8BB093F8202001A8BE
:1043C000019293F82420029293F82820039293F804
:1043D0002C20049293F838209B8F013A9BB2A3F2D1
:1043E0006C730592069302F00BFB0BB05DF804FBB7
:1043F0000040024007B502AB43F8040D184601F037
:1044000011FD114B1A7A42F002021A72027883F8F7
:104410002020027983F82420027A83F82820027B66
:1044200083F82C2002690132D2B283F83820426925
:1044300002F26C7292B29A871A7A02F0FD021A7234
:1044400003B05DF804FB00BF00400240012810B536
:1044500002D0022811D010BD034638225143114822
:1044600042184058E8B113B992F83620CAB1BDE8F5
:1044700010400D4A1946126810470A48382303FBBA
:1044800001035868013005D018699C68046093F8EE
:1044900036300BB10023E0E7506820F00100506097
:1044A000DBE710BDF8210010F4210010034A0021C1
:1044B0009068C0F34200FFF7C9BF00BF00C00040D2
:1044C000034A01219068C0F34200FFF7BFBF00BF5D
:1044D00000000140034A02219068C0F34200FFF748
:1044E000B5BF00BF00800940034A03219068C0F3B4
:1044F0004200FFF7ABBF00BF00C0094070B52A4BB8
:1045000004689C4211D006DCA3F580439C4212D182
:10451000264D052311E0264B9C4209D003F580432C
:104520009C4208D1234D082307E0234D062304E0D5
:10453000224D072301E000252B4672B16268012657
:1045400006FA01F10A4362605CB220462946FFF791
:1045500007FB1B4BA6401E6070BD01290AD04568B1
:10456000184A382606FB052292F836503032527926
:10457000D54217D1012202FA01F6B1FA81F165683C
:10458000490925EA06056560006802FA01F14068FC
:10459000014207D19A400A4BC3F88020BFF34F8FE6
:1045A000BFF36F8F70BD00BF00000140AD4400003D
:1045B00000800940E9440000C1440000D5440000E7
:1045C00000E100E0F82100102DE9F04F0268734B84
:1045D0008DB09A4206460F4604DD714871499B2210
:1045E00000F0DAFF3368704A934223D00FDCA2F563
:1045F0008042934239D16D4BD3F8A82122F0C002FA
:10460000C3F8A821D3F8A82142F040021DE0684A6F
:1046100093421DD002F58042934226D1634BD3F8DA
:10462000AC2122F44022C3F8AC21D3F8AC2142F4EF
:10463000802218E05D4BD3F8A82122F44072C3F821
:10464000A821D3F8A82142F48072C3F8A8210CE075
:10465000564BD3F8AC2122F44032C3F8AC21D3F846
:10466000AC2142F48032C3F8AC21524B3D01D3F867
:1046700000B0BBFBF5F305FB13B51FFA83F9002D62
:1046800053D04FEA4B0305934FF0010A4FEA8B03D7
:10469000069303935346059A0197CDF808B0049703
:1046A000002501995FFA8AFC4FF00008002A5FFAA2
:1046B00088F00790ABBF0398B2FBF1F4B0FBF1F4C4
:1046C0002409A8BF64090134C4F34F04002C49D065
:1046D000B8F1000F02D0012C98BF022408EB0A00A9
:1046E00060430893029BC000B3FBF0F00130C7EBBE
:1046F0005000CDF82CC00A91099201F0B1F8049B4A
:10470000099A98420A99089BDDF82CC005DAB8424C
:104710002ED06346A146079D049008F101085FFA78
:1047200088F060453944C1D326E00123316845EA69
:1047300003150A7BEDB242F080020A733268C9F3B6
:104740000721117132685FFA89F982F800903268A6
:1047500082F828503268137B03F07F0313730DB087
:10476000BDE8F08FB8F1000F14BF02240124B5E7B3
:104770006346079DA146D9E7BAF10F0FD6D002993B
:1047800006985944029105990AF1010A0A440399CD
:104790000144039101993944019182E700C0094025
:1047A000DC050100F50501000000014000C00F40DC
:1047B00000800940D0000010F8B55E1E012E0746AB
:1047C0000C46154604D914481449FB2200F0E4FEB7
:1047D000053C032C04D912481049FC2200F0DCFEF1
:1047E000042D04D90F480D49FE2200F0D5FE013DED
:1047F000EDB2032D87BF002211460B4B012198BF5C
:104800005A5744EA860343EAC104386844EA02146A
:10481000E4B20473F8BD00BF4E060100F5050100C7
:104820007306010096060100BC070100024610B5A0
:1048300001680B7DDB07FCD50B785268D8B2084BBA
:10484000382404FB02335A6801321FBF5A699B683F
:1048500013604B681CBF43F001034B6010BD00BFE9
:10486000F82100104268124B382101FB0233D9694C
:1048700003F11802013109D01B6B196893681942C2
:1048800014D10368187DC0F380107047026830337C
:10489000127D12F0200F03D000221A710120704700
:1048A00018790F288CBF0020012070470020704726
:1048B000F821001038B504460D462046FFF7D2FF18
:1048C0000028FAD02368EDB21D706268044B3821CD
:1048D00001FB023393F83420013283F8342038BDD1
:1048E000F82100102DE9F84F9A463C4C0368054624
:1048F000A34218BF00248846914647681CB1237C18
:1049000003F03F032374364E382202FB07634FF057
:10491000FF31D96159606B68002102FB03632846AF
:1049200083F835100A46FFF7E9FDB8F1000F52D0C1
:104930002C49484600F0E2FD2B498346504600F0E2
:10494000DDFDA8F10203012B17D8BAF1FF3F3FD0DC
:10495000224B984209D144B1237C504643F0800356
:104960002374214900F09CFD32E0382000FB0760F1
:1049700051461C3000F075FD2AE0B8F1010F2AD134
:10498000B9F1FF3F27D02B6807221A72134B9B45C2
:104990000AD14CB1237C484643F0400323741149AB
:1049A000BDE8F84F00F07CBD382404FB07604946A1
:1049B0000430002200F05AFD6B68012204FB0366FC
:1049C00086F835202846BDE8F84F0021FFF796BD50
:1049D000B8F1030FD3E7BDE8F88F00BF0000014036
:1049E000F82100104C050100980701002DE9F8435B
:1049F00005460F4608464D49164600F08BFD4C49CA
:104A00000446304600F086FD0146204600F064FD75
:104A1000411C044604D1474847495C2200F0BCFDD4
:104A2000464B2C609C4217D009D8A3F580439C428A
:104A30001FD1434AD2F8C43043F0080317E0414B7A
:104A40009C420FD003F580439C4212D13C4AD2F8DD
:104A5000C43043F000730AE0394AD2F8C43043F05E
:104A6000100304E0364AD2F8C43043F08073C2F831
:104A7000C4304FF0010984F808902B684FF000080B
:104A8000C3F8048028464FF41651FFF79DFD4246B7
:104A90004B4628460821FFF78FFE3846234900F091
:104AA000FFFC3046224900F0FBFC7A1C03D038465C
:104AB0004146FFF729FC731C03D030460021FFF765
:104AC00023FC1E4B9C420FD005D8A3F580439C428B
:104AD0000ED100230BE01B4B9C4207D003F5804313
:104AE0009C4205D1032302E0012300E002236B6016
:104AF0006A68154B382101FB02334FF0FF325A60D0
:104B0000DA61284613460021FFF7ECFE0F4B9C426A
:104B100009D10F4B01221A602946BDE8F8430D4820
:104B2000082201F0A7BDBDE8F88300BF2C070100F3
:104B3000700501001A070100F505010000000140A1
:104B400000C00F4000800940F821001000C0004064
:104B5000F0210010682300102DE9F74F80460F4622
:104B600008462E4916461D460C9C00F0D3FC2C49E5
:104B70000190304600F0CEFC2A498146284600F0DC
:104B8000C9FC29498346204600F0C4FC019B4946E4
:104B90008246184600F0A0FC51468146584600F077
:104BA0009BFC0146484600F097FCC8F80000013025
:104BB00004D11E481E49442200F0EEFCD8F8003013
:104BC0001C4A93420AD002F5B02293420DD102F55D
:104BD000E822D2F8C43043F4001304E0164AD2F8B5
:104BE000C43043F48063C2F8C43038460B4900F047
:104BF00057FC30460A4900F053FC2846094900F0AA
:104C00004FFC631C06D02046074903B0BDE8F04FB7
:104C100000F046BC03B0BDE8F08F00BF04090100FE
:104C2000C0070100FC07010040090100380801002D
:104C30004C0801000000034000C00F40F8B51746C3
:104C400002681E465368054623F0020353600B1F9B
:104C50000C2B0C4601D8032F04D9114811495922B5
:104C600000F09AFC2D68013C286807F0010144EA35
:104C7000C111000CC7F34004000441EA841404434A
:104C80002C606B68002E23F00D0214BF0423002358
:104C900013436B606B6843F002036B60F8BD00BFA9
:104CA000A20801004C08010003682DE9F0415A6890
:104CB000064622F002025A602C4A0D46934211D059
:104CC00002F5B02293421AD1294BD3F8AC2122F439
:104CD0004062C3F8AC21D3F8AC2142F48062C3F83F
:104CE000AC210CE0224BD3F8A82122F44012C3F8E7
:104CF000A821D3F8A82142F48012C3F8A8211D4BA3
:104D000002241F68B7FBF4F009F086FE80462846AF
:104D100009F082FE0146404609F086FF4FF07C51C3
:104D200009F0C6FD09F092FA00F00EFD09F092FDBF
:104D3000FF2812DC336801381C611A6822F47F02F4
:104D400022F47F421A601A6842EA002018605A680A
:104D500042F002025A60BDE8F0810234B4F5807F6F
:104D6000D0D10548BDE8F04100F028BC0000034068
:104D700000C00F40D0000010DC0801000368DA68B2
:104D80009007FCD59960DA685207FCD5986870479F
:104D90000649074A074B9A42BEBF51F8040B42F836
:104DA000040BF8E70448804704480047600F0100FF
:104DB000C8000010EC0A0010D54D000039010000B9
:104DC000FEE7FEE7FEE7FEE7FEE7FEE7FEE7FEE7BB
:104DD000FEE7FEE7264B2022C3F8A021D3F8A0214E
:104DE000900603D5D3F8A0215106FBD50222C3F8C3
:104DF00004210022C3F8A8210120C3F8AC210B2212
:104E0000C3F80C01AA21C3F884205522C3F88C10E2
:104E1000C3F88C20C3F88000C3F88C10C3F88C2032
:104E2000134BD3F888205201FAD50322C3F880200F
:104E3000AA22C3F88C205522C3F88C20D3F88810FE
:104E40000B4A11F0407FF9D00523C2F80831094B15
:104E5000C2F8C4300023C2F8C831136823F4704389
:104E600023F03A0343F4405343F03A03136070478E
:104E700000C00F40DE87280408B5114B1868E8B958
:104E8000104A01211960D2F8C43043F40003C2F87B
:104E9000C430A2F5D0220C4B10671B680220506072
:104EA0000A489B08B3FBF0F3013BD3600420516038
:104EB0000749FEF755FE074B10221A6008BD00BFD8
:104EC000D822001000C00F40D000001040420F0058
:104ED0003D55000000E100E008B5044B1B680BB92C
:104EE000FFF7CAFF024B986808BD00BFD822001028
:104EF00000400940034B98615A6942F001025A612F
:104F0000704700BF00400940024A536923F0010383
:104F10005361704700400940014B01221A607047FD
:104F2000004009408068704738B504460D460A4B7A
:104F3000036000234360A16002730848FFF78CF907
:104F400025B1074B1A681C60626000E06560034889
:104F5000FFF782F9204638BD88090100E0220010E1
:104F6000DC22001010B504460F4B03600F48FFF71A
:104F700073F9A3686BB10E4A1368A34202D1636848
:104F8000136006E05A68A24201D01346FAE762684D
:104F90005A600648FFF760F9237B13B92046FFF7F4
:104FA00071F9204610BD00BF88090100E022001001
:104FB000DC22001010B50446FFF7D4FF2046FFF7AF
:104FC00047F9204610BD4FF0FF3070474FF0FF30DB
:104FD0007047002070474FF0FF30704710B504460F
:104FE0000122FFF7A1FF024B2046236010BD00BF46
:104FF0009809010010B50446024B0360FFF7B2FFA9
:10500000204610BD9809010070470368184708B191
:105010000B68036070477047036810B5013304469E
:1050200004D1064806492C2200F0B6FA63691A68D2
:1050300063681A4214BF0120002010BDC7FE0000A3
:105040003603010038B505460C4600F0C9FA281DA4
:105050002146FEF7D2FDBDE8384000F0EBBA04303F
:10506000FFF7DABF10B50446074B40F81C3BFEF7CC
:1050700091FE04F13800FEF745FA04F12800FEF72E
:1050800041FA204610BD00BFD009010010B504460A
:10509000FFF7E8FF2046FFF7DBF8204610BD884207
:1050A00038B504460D460AD0FEF72CFA3CB1EB6841
:1050B0001BB15B68204629469847EB68E3602046B1
:1050C00038BD00002DE9FF41054604460E461B4B46
:1050D000182245F8043B2846002101F041FBDFF887
:1050E00068800023164FE361236263626363636435
:1050F000694604F12800CDF800800397FFF7CFFF41
:105100006846FEF7FFF9694604F13800CDF80080E3
:105110000397FFF7C4FF6846FEF7F4F93146094AE2
:10512000234604F11C00FEF7FDFD2846314600F041
:1051300098F9204604B0BDE8F08100BFD009010015
:10514000B809010015520000095000007FB50E4655
:10515000044600F045FAF56804F128001C3435B126
:105160003146FFF79CFF012120460A460CE0094B1F
:1051700069460093084B0393FFF791FF6846FEF7DB
:10518000C1F920462A460121FEF70CFE00F052FA32
:1051900004B070BD09500000B80901007FB50E468B
:1051A000044600F01DFAF56804F138001C3435B1EE
:1051B0003146FFF774FF2046022101220CE0094B23
:1051C00069460093084B0393FFF769FF6846FEF7B3
:1051D00099F920462A460221FEF7E4FD00F02AFA5A
:1051E00004B070BD09500000B8090100C36810B5D3
:1051F00004462BB90548064940F21F2200F0CCF9BD
:10520000E3682046BDE810401B681847D809010034
:10521000DD090100012908B502D0022902D008BD2C
:10522000283000E03830FFF7E1FF08BD704710B5C7
:105230000446FFF70DF8204610BD000070B5044687
:1052400003680C4D5B6898472B68A3420BD0261D62
:105250003046A168E2680023FFF7F0FC3046216980
:10526000FFF722FD2C6023682046BDE870409B6854
:10527000184700BFE822001037B504460948082542
:10528000206000206060E0600748A560206106980B
:105290000090201DFFF760FC2046FFF7CFFF20465F
:1052A00003B030BD300A010040420F0070B5044623
:1052B0000E46154603685B689847074B2046A66074
:1052C000E56000221A60FFF7B9FF23682046BDE8B9
:1052D00070409B68184700BFE822001070B5044674
:1052E0000D4603685B689847064B204625610022FF
:1052F0001A60FFF7A3FF23682046BDE870409B6853
:10530000184700BFE822001038B504460D46036870
:105310005B6898472046FFF791FF2946201DFFF75D
:105320002DFD0546236820469B689847284638BDD2
:1053300008B50248FEF790FF08BD00BFEC22001040
:1053400008B50248FEF788FF08BD00BFEC22001038
:1053500010B5044600F044F923682BB9E06800F06A
:1053600017F9012360602360BDE8104000F062B9C6
:1053700038B5054600F034F92C6824B1E86800F02F
:1053800007F96C68041B00F055F9204638BD10B5CC
:10539000044600F025F92046FFF7EAFFA368184409
:1053A0000023A0602360BDE8104000F043B938B589
:1053B000054600F015F92846AC68FFF7D9FF04440C
:1053C00000F038F9204638BD08B5FFF7F0FF4FF47C
:1053D0007A7390FBF3F008BD10B5044600F000F9B5
:1053E000E06800F0D5F800236060A360BDE81040DD
:1053F00000F020B9002310B50360436083600446C9
:1054000000F098F8E0602046FFF7E6FF204610BD68
:1054100038B50368044601330D4604D105480649F2
:10542000242200F0B9F863680DB1E26800E0226957
:10543000136038BDC7FE00003603010070B50E468C
:1054400004461546FEF7C2FB013609D0204600216E
:10545000FEF7D6FB20462946BDE87040FEF7CDBBDF
:1054600070BD0322FFF7EABFFFF7E8BF70B50E4635
:1054700004461546FEF7AAFB01360DD02046294604
:10548000FFF7C6FF20460121FEF7BAFB2046BDE824
:1054900070400221FEF7B1BB70BD0022FFF7E6BFEE
:1054A00010B50446013001D110BD0C310B685A1CF7
:1054B0000BD0A342F9D120468968FEF7FDFE2046B5
:1054C000BDE810400221FEF71FBF0248BDE81040B2
:1054D00000F074B8440A0100884208B50AD0431CA1
:1054E00007D0013106D0044800F068F84FF0FF30D3
:1054F00008BD084608BD00BF550A01000B685A1CCC
:1055000005D0834201D1486870470C31F6E7184650
:1055100070470000421C10B5044607D0FFF7EEFFAD
:10552000431C044602D1024800F048F8204610BD52
:10553000660A010000487047B80A0100014800F0FF
:1055400003B800BFB80A0100036870B5DB68044601
:10555000984763685A6823681AB99B68BDE8704029
:1055600018475B6815689847281A0028636808DCA4
:105570005A68916859601B68002BEAD050689847B8
:10558000E7E721685A68BDE870400B691068184762
:1055900003685B681847000070B506460D46144660
:1055A00000F01EF831462A4623460348FEF7E4FC85
:1055B000BDE87040FEF770BCC00A01000FB407B52B
:1055C00004A951F8040B0191FEF7AAFC012000F098
:1055D00051F9EFF3108000F0010080F001007047F6
:1055E00038B5FFF7F6FF80F00100C5B272B60C4C7B
:1055F00023680BB90B4B1D702368013304D10A4893
:105600000A493522FFF7C8FF23682BB125B908489E
:1056100006493922FFF7C0FF23680133236038BDF4
:10562000FC22001000230010F10A0100170B0100FA
:105630005A0B010010B50A4C236883B1FFF7C9FF6C
:1056400020B1084808494A22FFF7A6FF2368013B1A
:10565000236023681BB9054B1B7803B962B610BDE4
:10566000FC2200105A0B0100170B01000023001050
:1056700000F00CB830B585B06D4618242046294698
:10568000ABBE0446204605B030BD0000024B186892
:1056900000F00100704700BFF0ED00E010B50446D7
:1056A0000748FEF7D9FD074B1B6803B19847064B27
:1056B0001B680BB1204698470148FEF7CDFD10BD91
:1056C00004230010DC000010D400001038B505469B
:1056D0000A48FEF7C1FD0A4B1B681BB1984708B981
:1056E000FFF7DCFF074B1C680CB1A047044605B16F
:1056F0002C600248FEF7B0FD204638BD04230010A0
:10570000D8000010E000001038B50446FFF7E4FBB5
:105710000546FFF7E1FB401BA042FAD338BD00006D
:1057200008B5044909F0CCF909F01AFBBDE80840B6
:10573000FFF7EABF002474494FF47A735843FFF728
:10574000E3BF000000000000C1F30A522DE9F84356
:10575000A2F2FF36132E0B4604460D468846074636
:105760001DDC002E40DB3C4A864642FA06F901EA7F
:105770000902024318D036A3D3E9002308F008FC3D
:105780000022002309F046F820B1002D42DB00275B
:1057900028EA09053C4629462046BDE8F883332E11
:1057A00006DDB6F5806F2FD019462046BDE8F88398
:1057B0004FF0FF39A2F2134229FA02F910EA090F59
:1057C000F2D023A3D3E9002308F0E2FB0022002358
:1057D00009F020F80028DDD0002D21DB454627EA1E
:1057E00009073C462946D7E719A3D3E9002308F067
:1057F000CFFB0022002309F00DF80028CAD0002DAD
:1058000019DB00273D46C5E702460B4608F0C0FB02
:105810000446CAE74FF4801343FA06F6B044B6E7ED
:10582000142E10D00123C6F1340603FA06F63719F8
:1058300028BF9844D2E725F00042084B224318BF06
:105840001D460027A6E705F10108C7E7AFF3008072
:105850009C7500883CE4377EFFFF0F000000F0BF1E
:105860000028B8BF40427047014B1868704700BF1E
:10587000E400001008B50021044604F095FD044B37
:105880001868C36B03B198472046FEF7A9FC00BF18
:10589000700B0100B1F90C302DE9F0419AB20D46C0
:1058A000110780463AD46A6843F40063002AAB814A
:1058B00070DDAC6A002C4AD000229BB2D8F80060A0
:1058C000C8F8002013F4805268D02A6D5F0705D510
:1058D00069682B6B521A0BB1EB6BD21A0023E96982
:1058E0004046A047441C3DD00021B5F90C302A6940
:1058F00023F40063AB81DB0469602A6048D4296B20
:10590000C8F8006019B305F14003994202D040463F
:1059100000F052F900202863BDE8F0812E69B6B18D
:10592000910718BF00232C6808BF6B692E60A41B69
:10593000AB600AE0234632466F6AE9694046B847E1
:105940000028A4EB0004064404DD002CF2DC002057
:10595000BDE8F081AB894FF0FF3043F04003AB81ED
:10596000BDE8F081D8F800401D2CF3D8164BE34079
:10597000DB4313F00103EDD1B5F90C20296922F4C2
:105980000062AA81D2046B602960B8D5002CB6D120
:105990002865B4E7EA6B002A8BDCD8E70123E969C4
:1059A0004046A047431C024602D0AB89AC6A8DE753
:1059B000D8F80030002BF8D01D2B01D0162BC9D100
:1059C000C8F80060C3E700BF0100402038B50D46AD
:1059D000044608B1836BBBB1B5F90C0088B16B6E9E
:1059E000DB0701D4810517D520462946FFF752FF72
:1059F0006B6E0446DA0702D4AB899B0507D52046B7
:105A000038BD0446204638BD00F04AF8E4E7A86DEA
:105A100000F036FB204638BDA86D00F02DFBE3E713
:105A200020B1054B01461868FFF7D0BF034B04496E
:105A3000186800F0A7B900BFE4000010700B010067
:105A4000CD590000014900F09DB900BF65B40000C8
:105A5000002310B504468181C281036043608360E6
:105A60004366036143618361194608225C3000F09C
:105A700077FE07480749084A084B2062E4616162E3
:105A8000A262E36204F15800BDE8104000F0EEBAF3
:105A9000C96E0000F16E00002D6F00004D6F000018
:105AA00010B50446144800F0E7FAA26BFAB90320D7
:105AB000124904F53B73C4F8E832C4F8E022C4F894
:105AC000E402E16360680421FFF7C2FFA0680122DD
:105AD0000921FFF7BDFFE06802221221FFF7B8FF9E
